:0A0BA000000102020303040405052E
:1002B800E4F516F515F514F513C203C200C202C21F
:1002C800011205B37E087F008E238F24752B0875D5
:1002D8002C1275210875221C752908752A3C752D64
:1002E80008752E5CEE54C070030203B975170075CB
:1002F80018808E198F1AC3747E9FFF74089ECF24AE
:1003080002CF3400FEE48F128E11F510F50FF50EB2
:10031800F50DF50CF50BAF12AE11AD10AC0FAB0E21
:10032800AA0DA90CA80BC31207EF5033E51A250E26
:10033800F582E519350DF583E0FFE518250EF58200
:10034800E517350DF583EFF0E50E2401F50EE435DC
:100358000DF50DE4350CF50CE4350BF50B80B78580
:10036800172385182474002480FF740834FFFEC303
:10037800E52C9FF52CE52B9EF52BC3E5269FF5264E
:10038800E5259EF525C3E5289FF528E5279EF52751
:10039800C3E5229FF522E5219EF521C3E52A9FF5B5
:1003A8002AE5299EF529C3E52E9FF52EE52D9EF514
:1003B8002DD2E843D82090E668E04409F090E65C46
:1003C800E0443DF0D2AF90E680E020E105D204128F
:1003D80009D790E680E054F7F0538EF8C20312066E
:1003E800B8300105120080C2013003F2120BBA5076
:1003F800EDC203120A5D20001690E682E030E704A1
:10040800E020E1EF90E682E030E604E020E0E4124C
:070418000A06120BBC80C7AD
:0B0B950090E50DE030E402C322D32203
:1000800090E6B9E0700302013F1470030201BC2442
:10009000FE700302023F24FB700302013914700357
:1000A00002013314700302012714700302012D248E
:1000B0000560030202A4120BBE40030202B090E6E8
:1000C000BBE024FE602714603824FD601114602713
:1000D00024067050E52390E6B3F0E524803C120B33
:1000E00095503EE52B90E6B3F0E52C802DE525906C
:1000F000E6B3F0E5268023E52790E6B3F0E5288017
:100100001990E6BAE0FF120A32AA06A9077B01EAB3
:10011000494B600DEE90E6B3F0EF90E6B4F00202CA
:10012000B002029F02029F120B720202B0120BAACF
:100130000202B0120B840202B0120B600202B01273
:100140000BC040030202B090E6B8E0247F601514B3
:10015000601924027063A200E43325E0FFA202E4E8
:10016000334F8041E490E740F0803F90E6BCE0549C
:100170007EFF7E00E0D394807C0040047D018002FD
:100180007D00EC4EFEED4F24A0F582740B3EF5830E
:10019000E493FF3395E0FEEF24A1FFEE34E68F8277
:1001A000F583E0540190E740F0E4A3F090E68AF094
:1001B00090E68B7402F00202B002029F120BC24062
:1001C000030202B090E6B8E024FE60162402600349
:1001D0000202B090E6BAE0B40105C2000202B00229
:1001E000029F90E6BAE0705590E6BCE0547EFF7E38
:1001F00000E0D394807C0040047D0180027D00EC0F
:100200004EFEED4F24A0F582740B3EF583E493FF80
:100210003395E0FEEF24A1FFEE34E68F82F583E014
:1002200054FEF090E6BCE05480131313541FFFE01B
:10023000540F2F90E683F0E04420F080738060122A
:100240000BC4506C90E6B8E024FE601A2402704F94
:1002500090E6BAE0B40104D200805590E6BAE0B46A
:100260000202804C803990E6BCE0547EFF7E00E0C4
:10027000D394807C0040047D0180027D00EC4EFE22
:10028000ED4F24A0F582740B3EF583E493FF339584
:10029000E0FEEF24A1FFEE34E68F82F583800D901F
:1002A000E6A08008120BC6500790E6A0E04401F0DB
:0702B00090E6A0E04480F09D
:0102B7002224
:030033000205FCC7
:0405FC0053D8EF32AF
:100A82000232000002300000013500013600501031
:100A920000C0F9A4B0999282F880988883C6A18692
:010AA2008EC5
:1005B30090E600E054E74410F0908000E090900053
:1005C300E090A000E090B000E090E61274A2F0008A
:1005D300000090E61474E2F000000090E69174804D
:1005E300F0000000F000000043AF0190E65CE0443F
:0805F30002F090E65E7450F086
:0105FB0022DD
:1006B800E5334532601F90E6A5E054F0C4540F249A
:1006C80000F582E43410AB82FA7D017F21120AFE24
:1006D8007F21120903E5AA20E05AE5AA20E555740E
:1006E800F0F59A7400F59B74F8F59D7400F59E90EA
:1006F800E690E0FE90E691E07C002400FFEC3EFEF0
:10070800E4FDC3ED9FEC9E500F90E67BE090E67C05
:10071800F00DBD00010C80EA90E690E090E698F0BC
:1007280000000090E691E090E699F000000090E665
:04073800917480F048
:01073C00229A
:020BBA00D32244
:020BBC00D32242
:020BBE00D32240
:100B840090E6BAE0F534120BB2753200753301D336
:010B9400223E
:100B600090E740E534F0E490E68AF090E68B04F0FC
:020B7000D3228E
:080BAA0090E6BAE0F52FD3221A
:100B720090E740E52FF0E490E68AF090E68B04F0EF
:020B8200D3227C
:020BC000D3223E
:020BC200D3223C
:020BC400D3223A
:020BC600D32238
:100B1A00C0E0C083C082D2015391EF90E65D7401B8
:080B2A00F0D082D083D0E0324C
:100B4A00C0E0C083C0825391EF90E65D7404F0D098
:060B5A0082D083D0E032DE
:0D073D00C0E0C083C082C0D075D000C007EE
:10074A007508005391EF90E65D7402F0D535059077
:10075A008000E0FFD53604909000E00531E5317065
:10076A00020530D394E8E5306480948340067530FE
:10077A0000753100C3E53194F4E53064809481500A
:0B078A000690B000E0800490B800E092
:0B079500D007D0D0D082D083D0E0325B
:10093B00C0E0C083C082852925852A26852682852D
:10094B002583A37402F0852127852228852882859B
:10095B002783A37407F05391EF90E65D7410F0D0EA
:06096B0082D083D0E032CF
:100B3200C0E0C083C082D2035391EF90E65D740897
:080B4200F0D082D083D0E03234
:1008C600C0E0C083C08290E680E030E72085212525
:1008D600852226852682852583A37402F08529270D
:1008E600852A28852882852783A37407F05391EFEC
:0D08F60090E65D7420F0D082D083D0E03217
:010BC80032FA
:010BC90032F9
:010BCA0032F8
:010BCB0032F7
:010BCC0032F6
:010BCD0032F5
:060AA400C0E0C083C08227
:100AAA005391EF90E65F7410F0909800E0F50975A5
:020ABA0036C83C
:070ABC00D082D083D0E032AC
:010BCE0032F4
:060AC300C0E0C083C08208
:100AC9005391EF90E65F7440F0908800E0F50A7565
:020AD90035C81E
:070ADB00D082D083D0E0328D
:010BCF0032F3
:010BD00032F2
:010BD10032F1
:010BD20032F0
:010BD30032EF
:010BD40032EE
:010BD50032ED
:010BD60032EC
:010BD70032EB
:010BD80032EA
:010BD90032E9
:010BDA0032E8
:010BDB0032E7
:010BDC0032E6
:010BDD0032E5
:010BDE0032E4
:010BDF0032E3
:010BE00032E2
:010BE10032E1
:010BE20032E0
:010BE30032DF
:010BE40032DE
:010BE50032DD
:010BE60032DC
:010BE70032DB
:010BE80032DA
:010BE90032D9
:100800001201000200000040B404041000000102C4
:1008100000010A0600020000004001000902200059
:1008200001010080320904000002FF0000000705FA
:1008300002020002000705860200020009022000F1
:1008400001010080320904000002FF0000000705DA
:10085000020240000007058602400000040309046C
:10086000100343007900700072006500730073008C
:100870000E0345005A002D005500530042000000B1
:03004300020600B2
:03005300020600A2
:10060000020B1A0002073D00020B4A00020B3200E7
:1006100002093B000208C600020BC800020BC90019
:10062000020BCA00020BCB00020BCC00020BCD0068
:10063000020AA400020BCE00020AC300020BCF0084
:10064000020BD000020BC900020BD100020BD2003A
:10065000020BD300020BD400020BD500020BD60014
:10066000020BD700020BC900020BC900020BC90024
:10067000020BD800020BD900020BDA00020BDB00E0
:10068000020BDC00020BDD00020BDE00020BDF00C0
:10069000020BE000020BE100020BE200020BE300A0
:1006A000020BE400020BE500020BE600020BE70080
:0806B000020BE800020BE90057
:100A060090E682E030E004E020E60B90E682E030FB
:100A1600E119E030E71590E680E04401F07F147EAE
:0C0A26000012088090E680E054FEF022F0
:1009D70030040990E680E0440AF0800790E680E062
:1009E7004408F07FDC7E0512088090E65D74FFF016
:0F09F70090E65FF05391EF90E680E054F7F02226
:080BB200E4F53CD2E9D2AF22C8
:10090300AD0790E678E020E6F9C2E990E678E044A6
:1009130080F0ED25E090E679F090E678E030E0F9BC
:1009230090E678E04440F090E678E020E6F990E63F
:0809330078E030E1D6D2E922A0
:1009A500AC0790E678E020E6F9E53C702390E67820
:1009B500E04480F0EC25E090E679F08D37AF03A9AF
:1009C500077538018A39893AE4F53B753C01D3222C
:0209D500C3223B
:10097100AC0790E678E020E6F9E53C702590E67852
:10098100E04480F0EC25E0440190E679F08D37AF4A
:1009910003A9077538018A39893AE4F53B753C03A7
:0409A100D322C32278
:03004B0002041F8D
:10041F00C0E0C083C082C085C084C086758600C01E
:10042F00D075D000C000C001C002C003C006C00715
:10043F0090E678E030E206753C0602050990E67812
:10044F00E020E10CE53C64026006753C07020509FB
:10045F00E53C24FE605F14603624FE70030204FA4C
:10046F0024FC700302050624086003020509AB385B
:10047F00AA39A93AAF3B053B8F827583001207A0BB
:10048F0090E679F0E53B65377070753C05806B90B1
:10049F00E679E0AB38AA39A93AAE3B8E8275830074
:1004AF001207CD753C02E5376401704E90E678E097
:1004BF004420F08045E53724FEB53B0790E678E011
:1004CF004420F0E53714B53B0A90E678E04440F05D
:1004DF00753C0090E679E0AB38AA39A93AAE3B8E6D
:1004EF00827583001207CD053B800F90E678E044BC
:1004FF0040F0753C008003753C005391DFD007D06E
:10050F0006D003D002D001D000D0D0D086D084D076
:08051F0085D082D083D0E032C8
:020A3200A90712
:100A3400AE2DAF2E8F828E83A3E064037017AD01B9
:100A440019ED7001228F828E83E07C002FFDEC3E35
:080A5400FEAF0580DFE4FEFFA8
:010A5C002277
:100AE200120971E53C24FA600E146006240770F3C3
:0C0AF200D322E4F53CD322E4F53CD322EF
:100AFE001209A5E53C24FA600E146006240770F373
:0C0B0E00D322E4F53CD322E4F53CD322D2
:100A5D0090E682E044C0F090E681F043870100000B
:040A6D000000002263
:100880008E1B8F1C90E600E054187012E51C2401AA
:10089000FFE4351BC313F51BEF13F51C801590E621
:1008A00000E05418FFBF100BE51C25E0F51CE51B0C
:1008B00033F51BE51C151CAE1B7002151B4E6005A5
:0608C000120A7180EE2215
:100A71007400F58690FDA57C05A3E582458370F998
:010A81002252
:03000000020527CF
:0C052700787FE4F6D8FD75813C02056E7B
:1007A000BB010CE58229F582E5833AF583E022500E
:1007B00006E92582F8E622BBFE06E92582F8E22258
:0D07C000E58229F582E5833AF583E4932272
:1007CD00F8BB010DE58229F582E5833AF583E8F062
:1007DD00225006E92582C8F622BBFE05E92582C80E
:0207ED00F222F6
:1007EF00EB9FF5F0EA9E42F0E99D42F0E89C45F060
:0107FF0022D7
:100533000202B8E493A3F8E493A34003F68001F224
:1005430008DFF48029E493A3F85407240CC8C333C9
:10055300C4540F4420C8834004F456800146F6DF98
:10056300E4800B0102040810204080900A82E47E9C
:10057300019360BCA3FF543F30E509541FFEE4938D
:10058300A360010ECF54C025E060A840B8E493A354
:10059300FAE493A3F8E493A3C8C582C8CAC583CA7F
:1005A300F0A3C8C582C8CAC583CADFE9DEE780BE37
:010AA3000052
:00000001FF
