:100A5F000232000002300000013500013600501054
:100A6F0000C0F9A4B0999282F880988883C6A186B5
:010A7F008EE8
:1006B80090E600E054E74410F090E601E04440F092
:1006C800908000E0909000E090A000E090B000E002
:1006D80090E61274A2F000000090E61474D2F000C4
:1006E800000090E6917480F0000000F000000043E4
:0206F800AF0150
:0106FA0022DD
:1007E300E5AA20E05AE5AA20E55574F0F59A7400CD
:1007F300F59B74F8F59D7400F59E90E690E0FE90ED
:10080300E691E07C002400FFEC3EFEE4FDC3ED9F97
:10081300EC9E500F90E67BE090E67CF00DBD00016E
:100823000C80EA90E690E090E698F000000090E6F5
:0F08330091E090E699F000000090E6917480F05B
:010842002293
:0205FD00D32207
:0206FB00D32208
:0206FD00D32206
:100B290090E6BAE0F534120B57753200753301D3EC
:010B39002299
:100B050090E740E534F0E490E68AF090E68B04F057
:020B1500D322E9
:080B4F0090E6BAE0F52FD32275
:100B170090E740E52FF0E490E68AF090E68B04F04A
:020B2700D322D7
:020B5F00D3229F
:020B6100D3229D
:020B6300D3229B
:020B6500D32299
:100ABF00C0E0C083C082D2015391EF90E65D740114
:080ACF00F0D082D083D0E032A8
:100AEF00C0E0C083C0825391EF90E65D7404F0D0F4
:060AFF0082D083D0E0323A
:0D078000C0E0C083C082C0D075D000C007AB
:10078D007508005391EF90E65D7402F0D535059034
:10079D008000E0FFD53604909000E00531E5317022
:1007AD00020530D394E8E5306480948340067530BB
:1007BD0000753100C3E53194F4E5306480948150C7
:0B07CD000690B000E0800490B800E04F
:0B07D800D007D0D0D082D083D0E03218
:10091800C0E0C083C082852925852A268526828550
:100928002583A37402F085212785222885288285BE
:100938002783A37407F05391EF90E65D7410F0D00D
:0609480082D083D0E032F2
:100AD700C0E0C083C082D2035391EF90E65D7408F3
:080AE700F0D082D083D0E03290
:1008A300C0E0C083C08290E680E030E72085212548
:1008B300852226852682852583A37402F085292730
:1008C300852A28852882852783A37407F05391EF0F
:0D08D30090E65D7420F0D082D083D0E0323A
:0105FF0032C9
:0106FF0032C8
:010B6700325B
:010B6800325A
:010B69003259
:010B6A003258
:060A8100C0E0C083C0824A
:100A87005391EF90E65F7410F0909800E0F50975C8
:020A970036C85F
:070A9900D082D083D0E032CF
:010B6B003257
:060AA000C0E0C083C0822B
:100AA6005391EF90E65F7440F0908800E0F50A7588
:020AB60035C841
:070AB800D082D083D0E032B0
:010B6C003256
:010B6D003255
:010B6E003254
:010B6F003253
:010B70003252
:010B71003251
:010B72003250
:010B7300324F
:010B7400324E
:010B7500324D
:010B7600324C
:010B7700324B
:010B7800324A
:010B79003249
:010B7A003248
:010B7B003247
:010B7C003246
:010B7D003245
:010B7E003244
:010B7F003243
:010B80003242
:010B81003241
:010B82003240
:010B8300323F
:010B8400323E
:010B8500323D
:010B8600323C
:0A0B45000001020203030404050589
:1002B800E4F516F515F514F513C203C200C202C21F
:1002C800011206B87E077F008E238F24752B0775D1
:1002D8002C1275210775221C752907752A3C752D66
:1002E80007752E5CEE54C070030203B975170075CC
:1002F80018808E198F1AC3747E9FFF74079ECF24AF
:1003080002CF3400FEE48F128E11F510F50FF50EB2
:10031800F50DF50CF50BAF12AE11AD10AC0FAB0E21
:10032800AA0DA90CA80BC31208925033E51A250E82
:10033800F582E519350DF583E0FFE518250EF58200
:10034800E517350DF583EFF0E50E2401F50EE435DC
:100358000DF50DE4350CF50CE4350BF50B80B78580
:10036800172385182474002480FF740734FFFEC304
:10037800E52C9FF52CE52B9EF52BC3E5269FF5264E
:10038800E5259EF525C3E5289FF528E5279EF52751
:10039800C3E5229FF522E5219EF521C3E52A9FF5B5
:1003A8002AE5299EF529C3E52E9FF52EE52D9EF514
:1003B8002DD2E843D82090E668E04409F090E65C46
:1003C800E0443DF0D2AF90E680E020E105D204128F
:1003D80009B490E680E054F7F0538EF8C203120790
:1003E800E3300105120080C2013003F21205FD500E
:1003F800EDC203120A3A20001690E682E030E704C4
:10040800E020E1EF90E682E030E604E020E0E4124C
:0704180009E31206FB80C797
:0B0B3A0090E50DE030E402C322D3225E
:1000800090E6B9E0700302013F1470030201BC2442
:10009000FE700302023F24FB700302013914700357
:1000A00002013314700302012714700302012D248E
:1000B0000560030202A41206FD40030202B090E6AE
:1000C000BBE024FE602714603824FD601114602713
:1000D00024067050E52390E6B3F0E524803C120B33
:1000E0003A503EE52B90E6B3F0E52C802DE52590C7
:1000F000E6B3F0E5268023E52790E6B3F0E5288017
:100100001990E6BAE0FF120A0FAA06A9077B01EAD6
:10011000494B600DEE90E6B3F0EF90E6B4F00202CA
:10012000B002029F02029F120B170202B0120B4F85
:100130000202B0120B290202B0120B050202B01229
:100140000B5F40030202B090E6B8E0247F60151414
:10015000601924027063A200E43325E0FFA202E4E8
:10016000334F8041E490E740F0803F90E6BCE0549C
:100170007EFF7E00E0D394807C0040047D018002FD
:100180007D00EC4EFEED4F2445F582740B3EF58369
:10019000E493FF3395E0FEEF24A1FFEE34E68F8277
:1001A000F583E0540190E740F0E4A3F090E68AF094
:1001B00090E68B7402F00202B002029F120B6140C3
:1001C000030202B090E6B8E024FE60162402600349
:1001D0000202B090E6BAE0B40105C2000202B00229
:1001E000029F90E6BAE0705590E6BCE0547EFF7E38
:1001F00000E0D394807C0040047D0180027D00EC0F
:100200004EFEED4F2445F582740B3EF583E493FFDB
:100210003395E0FEEF24A1FFEE34E68F82F583E014
:1002200054FEF090E6BCE05480131313541FFFE01B
:10023000540F2F90E683F0E04420F080738060122A
:100240000B63506C90E6B8E024FE601A2402704FF5
:1002500090E6BAE0B40104D200805590E6BAE0B46A
:100260000202804C803990E6BCE0547EFF7E00E0C4
:10027000D394807C0040047D0180027D00EC4EFE22
:10028000ED4F2445F582740B3EF583E493FF3395DF
:10029000E0FEEF24A1FFEE34E68F82F583800D901F
:1002A000E6A08008120B65500790E6A0E04401F03C
:0702B00090E6A0E04480F09D
:0102B7002224
:030033000205F9CA
:0405F90053D8EF32B2
:100700001201000200000040B404041000000102C5
:1007100000010A060002000000400100090220005A
:1007200001010080320904000002FF0000000705FB
:1007300002020002000705860200020009022000F2
:1007400001010080320904000002FF0000000705DB
:10075000020240000007058602400000040309046D
:10076000100343007900700072006500730073008D
:100770000E0345005A002D005500530042000000B2
:1009E30090E682E030E004E020E60B90E682E0301F
:1009F300E119E030E71590E680E04401F07F147ED2
:0C0A0300001205B390E680E054FEF022E3
:1009B40030040990E680E0440AF0800790E680E085
:1009C4004408F07FDC7E051205B390E65D74FFF009
:0F09D40090E65FF05391EF90E680E054F7F02249
:080B5700E4F53CD2E9D2AF2223
:1008E000AD0790E678E020E6F9C2E990E678E044CA
:1008F00080F0ED25E090E679F090E678E030E0F9E0
:1009000090E678E04440F090E678E020E6F990E662
:0809100078E030E1D6D2E922C3
:10098200AC0790E678E020E6F9E53C702390E67843
:10099200E04480F0EC25E090E679F08D37AF03A9D2
:1009A200077538018A39893AE4F53B753C01D3224F
:0209B200C3225E
:10094E00AC0790E678E020E6F9E53C702590E67875
:10095E00E04480F0EC25E0440190E679F08D37AF6D
:10096E0003A9077538018A39893AE4F53B753C03CA
:04097E00D322C3229B
:03004B0002041F8D
:10041F00C0E0C083C082C085C084C086758600C01E
:10042F00D075D000C000C001C002C003C006C00715
:10043F0090E678E030E206753C0602050990E67812
:10044F00E020E10CE53C64026006753C07020509FB
:10045F00E53C24FE605F14603624FE70030204FA4C
:10046F0024FC700302050624086003020509AB385B
:10047F00AA39A93AAF3B053B8F8275830012084317
:10048F0090E679F0E53B65377070753C05806B90B1
:10049F00E679E0AB38AA39A93AAE3B8E8275830074
:1004AF00120870753C02E5376401704E90E678E0F3
:1004BF004420F08045E53724FEB53B0790E678E011
:1004CF004420F0E53714B53B0A90E678E04440F05D
:1004DF00753C0090E679E0AB38AA39A93AAE3B8E6D
:1004EF0082758300120870053B800F90E678E04418
:1004FF0040F0753C008003753C005391DFD007D06E
:10050F0006D003D002D001D000D0D0D086D084D076
:08051F0085D082D083D0E032C8
:020A0F00A90735
:100A1100AE2DAF2E8F828E83A3E064037017AD01DC
:100A210019ED7001228F828E83E07C002FFDEC3E58
:080A3100FEAF0580DFE4FEFFCB
:010A3900229A
:100A3A0090E682E044C0F090E681F043870100002E
:040A4A000000002286
:1005B3008E1B8F1C90E600E054187012E51C24017A
:1005C300FFE4351BC313F51BEF13F51C801590E6F1
:1005D30000E05418FFBF100BE51C25E0F51CE51BDC
:1005E30033F51BE51C151CAE1B7002151B4E600575
:0605F300120A4E80EE2208
:100A4E007400F58690FDA57C05A3E582458370F9BB
:010A5E002275
:03004300020600B2
:03005300020600A2
:10060000020ABF0002078000020AEF00020AD700B8
:10061000020918000208A3000205FF000206FF00FD
:10062000020B6700020B6800020B6900020B6A00F4
:10063000020A8100020B6B00020AA000020B6C0090
:10064000020B6D000206FF00020B6E00020B6F0032
:10065000020B7000020B7100020B7200020B7300A0
:10066000020B74000206FF000206FF000206FF00F4
:10067000020B7500020B7600020B7700020B78006C
:10068000020B7900020B7A00020B7B00020B7C004C
:10069000020B7D00020B7E00020B7F00020B80002C
:1006A000020B8100020B8200020B8300020B84000C
:0806B000020B8500020B86001D
:03000000020527CF
:0C052700787FE4F6D8FD75813C02056E7B
:10084300BB010CE58229F582E5833AF583E022506A
:1008530006E92582F8E622BBFE06E92582F8E222B4
:0D086300E58229F582E5833AF583E49322CE
:10087000F8BB010DE58229F582E5833AF583E8F0BE
:10088000225006E92582C8F622BBFE05E92582C86A
:02089000F22252
:10089200EB9FF5F0EA9E42F0E99D42F0E89C45F0BC
:0108A2002233
:100533000202B8E493A3F8E493A34003F68001F224
:1005430008DFF48029E493A3F85407240CC8C333C9
:10055300C4540F4420C8834004F456800146F6DF98
:10056300E4800B0102040810204080900A5FE47EBF
:10057300019360BCA3FF543F30E509541FFEE4938D
:10058300A360010ECF54C025E060A840B8E493A354
:10059300FAE493A3F8E493A3C8C582C8CAC583CA7F
:1005A300F0A3C8C582C8CAC583CADFE9DEE780BE37
:010A80000075
:00000001FF
