:100AFA0002320000023000000135000136005010B9
:100B0A0000C0F9A4B0999282F880988883C6A18619
:010B1A008E4C
:1008E30090E600E054E74410F0908000E090900020
:1008F300E090A000E090B000E090E61274A2F00057
:10090300000090E61474E2F000000090E691748019
:10091300F0000000F0000000E4FFFEEF04FD7400AF
:100923002FF58274F83EF583EDF00FBF00010EE45E
:0A093300B507E8EEB402E443AF019B
:01093D002297
:1006B800E5334532601F90E6A5E054F0C4540F249A
:1006C80000F582E43410AB82FA7D017F21120B968B
:1006D8007F2112097BE5AA20E05AE5AA20E5557496
:1006E800F0F59A7400F59B74F8F59D7400F59E90EA
:1006F800E690E0FE90E691E07C002400FFEC3EFEF0
:10070800E4FDC3ED9FEC9E500F90E67BE090E67C05
:10071800F00DBD00010C80EA90E690E090E698F0BC
:1007280000000090E691E090E699F000000090E665
:04073800917480F048
:01073C00229A
:0205FD00D32207
:020CA400D32259
:020CA600D32257
:100C5A0090E6BAE0F534120C9C753200753301D374
:010C6A002267
:100C360090E740E534F0E490E68AF090E68B04F025
:020C4600D322B7
:080C940090E6BAE0F52FD3222F
:100C480090E740E52FF0E490E68AF090E68B04F018
:020C5800D322A5
:020CA800D32255
:020CAA00D32253
:020CAC00D32251
:020CAE00D3224F
:100BB200C0E0C083C082D2015391EF90E65D740120
:080BC200F0D082D083D0E032B4
:100BF900C0E0C083C0825391EF90E65D7404F0D0E9
:060C090082D083D0E0322E
:0D088000C0E0C083C082C0D075D000C007AA
:10088D007508005391EF90E65D7402F0D535059033
:10089D008000E0FFD53604909000E00531E5317021
:1008AD00020530D394E8E5306480948340067530BA
:1008BD0000753100C3E53194F4E5306480948150C6
:0B08CD000690B000E0800490B800E04E
:0B08D800D007D0D0D082D083D0E03217
:1009B300C0E0C083C082852925852A2685268285B5
:1009C3002583A37402F08521278522288528828523
:1009D3002783A37407F05391EF90E65D7410F0D072
:0609E30082D083D0E03257
:100BCA00C0E0C083C082D2035391EF90E65D7408FF
:080BDA00F0D082D083D0E0329C
:10093E00C0E0C083C08290E680E030E720852125AC
:10094E00852226852682852583A37402F085292794
:10095E00852A28852882852783A37407F05391EF73
:0D096E0090E65D7420F0D082D083D0E0329E
:0105FF0032C9
:010CB0003211
:010CB1003210
:010CB200320F
:010CB300320E
:010CB400320D
:060B3C00C0E0C083C0828E
:100B42005391EF90E65F7410F0909800E0F509750C
:020B520036C8A3
:070B5400D082D083D0E03213
:010CB500320C
:060B5B00C0E0C083C0826F
:100B61005391EF90E65F7440F0908800E0F50A75CC
:020B710035C885
:070B7300D082D083D0E032F4
:010CB600320B
:010CB700320A
:010CB8003209
:010CB9003208
:010CBA003207
:010CBB003206
:010CBC003205
:010CBD003204
:010CBE003203
:010CBF003202
:010CC0003201
:010CC1003200
:010CC20032FF
:010CC30032FE
:010CC40032FD
:010CC50032FC
:010CC60032FB
:010CC70032FA
:010CC80032F9
:010CC90032F8
:010CCA0032F7
:010CCB0032F6
:010CCC0032F5
:010CCD0032F4
:010CCE0032F3
:010CCF0032F2
:010CD00032F1
:0A0C8A000001020203030404050543
:1002B800E4F516F515F514F513C203C200C202C21F
:1002C800011208E37E087F008E238F24752B0875A2
:1002D8002C1275210875221C752908752A3C752D64
:1002E80008752E5CEE54C070030203B975170075CB
:1002F80018808E198F1AC3747E9FFF74089ECF24AE
:1003080002CF3400FEE48F128E11F510F50FF50EB2
:10031800F50DF50CF50BAF12AE11AD10AC0FAB0E21
:10032800AA0DA90CA80BC31207A55033E51A250E70
:10033800F582E519350DF583E0FFE518250EF58200
:10034800E517350DF583EFF0E50E2401F50EE435DC
:100358000DF50DE4350CF50CE4350BF50B80B78580
:10036800172385182474002480FF740834FFFEC303
:10037800E52C9FF52CE52B9EF52BC3E5269FF5264E
:10038800E5259EF525C3E5289FF528E5279EF52751
:10039800C3E5229FF522E5219EF521C3E52A9FF5B5
:1003A8002AE5299EF529C3E52E9FF52EE52D9EF514
:1003B8002DD2E843D82090E668E04409F090E65C46
:1003C800E0443DF0D2AF90E680E020E105D204128F
:1003D8000A4F90E680E054F7F0538EF8C2031206F5
:1003E800B8300105120080C2013003F21205FD5039
:1003F800EDC203120AD520001690E682E030E70429
:10040800E020E1EF90E682E030E604E020E0E4124C
:070418000A7E120CA480C74C
:0B07F50090E50DE030E402C322D322A7
:1000800090E6B9E0700302013F1470030201BC2442
:10009000FE700302023F24FB700302013914700357
:1000A00002013314700302012714700302012D248E
:1000B0000560030202A4120CA640030202B090E6FF
:1000C000BBE024FE602714603824FD601114602713
:1000D00024067050E52390E6B3F0E524803C120737
:1000E000F5503EE52B90E6B3F0E52C802DE525900C
:1000F000E6B3F0E5268023E52790E6B3F0E5288017
:100100001990E6BAE0FF120AAAAA06A9077B01EA3B
:10011000494B600DEE90E6B3F0EF90E6B4F00202CA
:10012000B002029F02029F120C480202B0120C940D
:100130000202B0120C5A0202B0120C360202B012C5
:100140000CA840030202B090E6B8E0247F601514CA
:10015000601924027063A200E43325E0FFA202E4E8
:10016000334F8041E490E740F0803F90E6BCE0549C
:100170007EFF7E00E0D394807C0040047D018002FD
:100180007D00EC4EFEED4F248AF582740C3EF58323
:10019000E493FF3395E0FEEF24A1FFEE34E68F8277
:1001A000F583E0540190E740F0E4A3F090E68AF094
:1001B00090E68B7402F00202B002029F120CAA4079
:1001C000030202B090E6B8E024FE60162402600349
:1001D0000202B090E6BAE0B40105C2000202B00229
:1001E000029F90E6BAE0705590E6BCE0547EFF7E38
:1001F00000E0D394807C0040047D0180027D00EC0F
:100200004EFEED4F248AF582740C3EF583E493FF95
:100210003395E0FEEF24A1FFEE34E68F82F583E014
:1002200054FEF090E6BCE05480131313541FFFE01B
:10023000540F2F90E683F0E04420F080738060122A
:100240000CAC506C90E6B8E024FE601A2402704FAB
:1002500090E6BAE0B40104D200805590E6BAE0B46A
:100260000202804C803990E6BCE0547EFF7E00E0C4
:10027000D394807C0040047D0180027D00EC4EFE22
:10028000ED4F248AF582740C3EF583E493FF339599
:10029000E0FEEF24A1FFEE34E68F82F583800D901F
:1002A000E6A08008120CAE500790E6A0E04401F0F2
:0702B00090E6A0E04480F09D
:0102B7002224
:030033000205F9CA
:0405F90053D8EF32B2
:100BE2000D0A2D3E496E697469616C697A65642EDD
:070BF2002E2E2E200A0A003E
:100B1C0075C83475CBFF75CAD975985AD29990E6B9
:100B2C0000E054E74410F07BFF7A0B79E20207B641
:100C2300151DA81DA6073099FDC299A81DE6F599C3
:030C3300051D227A
:100C0F00AE07EEC3940AEE5004243080022437FF5F
:040C1F00120C23226E
:100C6B00AD07EDC4540FFF120C0FED540FFF020C28
:010C7B000F69
:0E0C7C00AB07AA06AF02120C6BAF03020C6BA3
:1007B600151D151D151DA81DA60308A60208A601D0
:1007C600A81D860308E6FA08E6F912073D6019A88F
:1007D6001D8603080806E618860270010614F9123B
:0F07E600073DFF120C2380D8051D051D051D22A0
:100800001201000200000040B404041000000102C4
:1008100000010A0600020000004001000902200059
:1008200001010080320904000002FF0000000705FA
:1008300002020002000705860200020009022000F1
:1008400001010080320904000002FF0000000705DA
:10085000020240000007058602400000040309046C
:10086000100343007900700072006500730073008C
:100870000E0345005A002D005500530042000000B1
:100A7E0090E682E030E004E020E60B90E682E03083
:100A8E00E119E030E71590E680E04401F07F147E36
:0C0A9E00001205B390E680E054FEF02248
:100A4F0030040990E680E0440AF0800790E680E0E9
:100A5F004408F07FDC7E051205B390E65D74FFF06D
:0F0A6F0090E65FF05391EF90E680E054F7F022AD
:080C9C00E4F53CD2E9D2AF22DD
:10097B00AD0790E678E020E6F9C2E990E678E0442E
:10098B0080F0ED25E090E679F090E678E030E0F944
:10099B0090E678E04440F090E678E020E6F990E6C7
:0809AB0078E030E1D6D2E92228
:100A1D00AC0790E678E020E6F9E53C702390E678A7
:100A2D00E04480F0EC25E090E679F08D37AF03A936
:100A3D00077538018A39893AE4F53B753C01D322B3
:020A4D00C322C2
:1009E900AC0790E678E020E6F9E53C702590E678DA
:1009F900E04480F0EC25E0440190E679F08D37AFD2
:100A090003A9077538018A39893AE4F53B753C032E
:040A1900D322C322FF
:03004B0002041F8D
:10041F00C0E0C083C082C085C084C086758600C01E
:10042F00D075D000C000C001C002C003C006C00715
:10043F0090E678E030E206753C0602050990E67812
:10044F00E020E10CE53C64026006753C07020509FB
:10045F00E53C24FE605F14603624FE70030204FA4C
:10046F0024FC700302050624086003020509AB385B
:10047F00AA39A93AAF3B053B8F8275830012075605
:10048F0090E679F0E53B65377070753C05806B90B1
:10049F00E679E0AB38AA39A93AAE3B8E8275830074
:1004AF00120783753C02E5376401704E90E678E0E1
:1004BF004420F08045E53724FEB53B0790E678E011
:1004CF004420F0E53714B53B0A90E678E04440F05D
:1004DF00753C0090E679E0AB38AA39A93AAE3B8E6D
:1004EF0082758300120783053B800F90E678E04406
:1004FF0040F0753C008003753C005391DFD007D06E
:10050F0006D003D002D001D000D0D0D086D084D076
:08051F0085D082D083D0E032C8
:020AAA00A9079A
:100AAC00AE2DAF2E8F828E83A3E064037017AD0141
:100ABC0019ED7001228F828E83E07C002FFDEC3EBD
:080ACC00FEAF0580DFE4FEFF30
:010AD40022FF
:100B7A001209E9E53C24FA600E146006240770F3B2
:0C0B8A00D322E4F53CD322E4F53CD32256
:100B9600120A1DE53C24FA600E146006240770F361
:0C0BA600D322E4F53CD322E4F53CD3223A
:100AD50090E682E044C0F090E681F0438701000093
:040AE50000000022EB
:1005B3008E1B8F1C90E600E054187012E51C24017A
:1005C300FFE4351BC313F51BEF13F51C801590E6F1
:1005D30000E05418FFBF100BE51C25E0F51CE51BDC
:1005E30033F51BE51C151CAE1B7002151B4E600575
:0605F300120AE980EE226D
:100AE9007400F58690FDA57C05A3E582458370F920
:010AF90022DA
:03004300020600B2
:03005300020600A2
:10060000020BB20002088000020BF900020BCA00C4
:100610000209B30002093E000205FF00020CB0000F
:10062000020CB100020CB200020CB300020CB400C8
:10063000020B3C00020CB500020B5B00020CB60082
:10064000020CB700020CB000020CB800020CB9009A
:10065000020CBA00020CBB00020CBC00020CBD0074
:10066000020CBE00020CB000020CB000020CB00084
:10067000020CBF00020CC000020CC100020CC20040
:10068000020CC300020CC400020CC500020CC60020
:10069000020CC700020CC800020CC900020CCA0000
:1006A000020CCB00020CCC00020CCD00020CCE00E0
:0806B000020CCF00020CD00087
:03000000020527CF
:0C052700787FE4F6D8FD75813C02056E7B
:10073D00BB010689828A83E0225002E722BBFE02BA
:09074D00E32289828A83E49322ED
:10075600BB010CE58229F582E5833AF583E0225058
:1007660006E92582F8E622BBFE06E92582F8E222A2
:0D077600E58229F582E5833AF583E49322BC
:10078300F8BB010DE58229F582E5833AF583E8F0AC
:10079300225006E92582C8F622BBFE05E92582C858
:0207A300F22240
:1007A500EB9FF5F0EA9E42F0E99D42F0E89C45F0AA
:0107B5002221
:100533000202B8E493A3F8E493A34003F68001F224
:1005430008DFF48029E493A3F85407240CC8C333C9
:10055300C4540F4420C8834004F456800146F6DF98
:10056300E4800B0102040810204080900AFAE47E24
:10057300019360BCA3FF543F30E509541FFEE4938D
:10058300A360010ECF54C025E060A840B8E493A354
:10059300FAE493A3F8E493A3C8C582C8CAC583CA7F
:1005A300F0A3C8C582C8CAC583CADFE9DEE780BE37
:010B1B0000D9
:00000001FF
